:100000000C9463000C948B000C948B000C94F805FA
:100010000C94F8050C94F8050C948B000C948B0050
:100020000C948B000C948B000C948B000C948B0024
:100030000C948B000C948B000C948B000C948B0014
:100040000C9456050C948B000C94C6050C94A005DA
:100050000C948B000C948B000C948B000C948B00F4
:100060000C948B000C948B0000000008000201002F
:100070000003040700000000000000000000000072
:1000800023002600290000000000240027002A0089
:1000900000000000250028002B00040404040404D0
:1000A0000404020202020202030303030303010227
:1000B00004081020408001020408102001020408F6
:1000C0001020BC062A0A11241FBECFEFD8E0DEBFE5
:1000D000CDBF23E0A4E6B2E001C01D92AA35B2076D
:1000E000E1F712E0A0E0B1E0E6E3F9E102C005903B
:1000F0000D92A436B107D9F710E0C2E6D0E004C0F3
:100100002197FE010E948D0AC136D107C9F70E94CE
:1001100006070C948E0C0C9400003FB7F894809165
:10012000A9029091AA02A091AB02B091AC0226B5AF
:10013000A89B05C02F3F19F00196A11DB11D3FBF1F
:10014000BA2FA92F982F8827BC01CD01620F711DEE
:10015000811D911D42E0660F771F881F991F4A95E8
:10016000D1F708958F929F92AF92BF92CF92DF9274
:10017000EF92FF924B015C010E948D006B017C01AC
:100180000E948D006C197D098E099F09683E73409D
:1001900081059105A8F321E0821A9108A108B10810
:1001A00088EEC80E83E0D81EE11CF11C8114910476
:1001B000A104B10429F7FF90EF90DF90CF90BF909A
:1001C000AF909F908F900895DB0114964D915C91B4
:1001D00015976D917C91DC01ED91FC910280F3818A
:1001E000E02D0994AF92BF92CF92DF92EF92FF92EF
:1001F0000F931F93CF93DF936C017B018B01040F4F
:10020000151FEB015E01AE18BF08C017D10759F0EA
:100210006991D601ED91FC910190F081E02DC6012C
:100220000995892B79F7C501DF91CF911F910F9126
:10023000FF90EF90DF90CF90BF90AF900895FC01BA
:10024000538D448D252F30E0842F90E0821B930B3B
:10025000541710F0CF96089501970895FC01918DE1
:10026000828D981761F0A28DAE0FBF2FB11D5D96E4
:100270008C91928D9F5F9F73928F90E008958FEF86
:100280009FEF0895FC01918D828D981731F0828D3A
:10029000E80FF11D858D90E008958FEF9FEF089591
:1002A000FC01918D228D892F90E0805C9F4F821BF5
:1002B00091098F739927089581EB92E00E94500174
:1002C00021E0892B09F420E0822F089580E090E05E
:1002D000892B29F00E945C0181110C940000089583
:1002E000FC01A48DA80FB92FB11DA35ABF4F2C91AB
:1002F000848D90E001968F739927848FA689B789A2
:100300002C93A089B1898C91837080648C93938D98
:10031000848D981306C00288F389E02D80818F7D3B
:1003200080830895EF92FF920F931F93CF93DF93F3
:10033000EC0181E0888F9B8D8C8D98131AC0E88921
:10034000F989808185FF15C09FB7F894EE89FF89F0
:100350006083E889F98980818370806480839FBF8E
:1003600081E090E0DF91CF911F910F91FF90EF908E
:100370000895F62E0B8D10E00F5F1F4F0F7311279E
:10038000E02E8C8D8E110CC00FB607FCFACFE889D9
:10039000F989808185FFF5CFCE010E947001F1CFF0
:1003A000EB8DEC0FFD2FF11DE35AFF4FF0829FB74D
:1003B000F8940B8FEA89FB8980818062CFCFCF933D
:1003C000DF93EC01888D8823B9F0AA89BB89E8897D
:1003D000F9898C9185FD03C0808186FD0DC00FB623
:1003E00007FCF7CF8C9185FFF2CF808185FFEDCFA1
:1003F000CE010E947001E9CFDF91CF910895209145
:10040000AF023091B0022817390771F49091AD0214
:100410008091AE02981741F0E091AD02F0E0EC5906
:10042000FD4F808190E008958FEF9FEF089508952C
:10043000EF92FF920F931F93CF93DF93DC015C96B3
:10044000ED90FC905D97E114F10479F481E090E087
:1004500013969C938E93129790E080E0DF91CF915A
:100460001F910F91FF90EF9008955196ED91FC919F
:10047000529750968C915097982F90950FB75E9603
:100480002C915E97122F127021FD6095F8942081B7
:10049000112319F1282B2083E7012197F1F728E098
:1004A000462F50E0308160FF1AC0382B3083E701BF
:1004B0002197F1F7BA0175956795215089F71123B6
:1004C00081F08081892380830FBF5C968D919C9100
:1004D0000197F1F781E090E0C1CF2923DCCF3923E8
:1004E000E5CF9081892BEFCF2091AF023091B00200
:1004F0002817390771F48091AE022091AD0290E087
:10050000805C9F4F821B910960E470E00E94650A45
:10051000089590E080E008952091AF023091B002FC
:1005200028173907B9F49091AD028091AE0298175F
:1005300089F0E091AD02F0E0EC59FD4F808120910F
:10054000AD0230E02F5F3F4F2F7333272093AD0272
:1005500090E008958FEF9FEF089590E080E0089578
:10056000FC0101900020E9F73197AF01481B590BBE
:10057000BC0181EB92E00C94F2000F931F93CF9398
:10058000DF93EC0188819981009759F02A813B81A2
:100590002617370730F081E0DF91CF911F910F913F
:1005A00008958B016F5F7F4F0E94B80B009759F041
:1005B000998388831B830A832C813D81232B59F7E0
:1005C000FC011082E8CF80E0E7CFEF92FF920F931B
:1005D0001F93CF93DF936115710541F480E0DF91A4
:1005E000CF911F910F91FF90EF9008954115510504
:1005F000B1F07B01EC010C811D81040F151FB801C6
:100600000E94BD02882351F3288139818C819D810C
:10061000B701820F931F0E94870C1D830C8381E01A
:10062000DECFCF93DF9300D0CDB7DEB769831A82D8
:1006300041E050E0BE016F5F7F4F0E94E5020F90E6
:100640000F90DF91CF910895CF93DF93EC018881D4
:100650009981009711F00E942F0B198218821D8238
:100660001C821B821A82DF91CF910895CF93DF9372
:10067000EC01FB0101900020E9F73197AF01461B27
:10068000570B0E94E502811103C0CE010E94240392
:10069000CE01DF91CF910895EF92FF920F931F93B8
:1006A000CF93DF93EC017B018A01BA010E94BD0266
:1006B00081110BC0CE010E942403CE01DF91CF91A6
:1006C0001F910F91FF90EF9008951D830C83B70148
:1006D000888199810E94870CF0CFCF93DF93EC0142
:1006E000FB018617970749F06081718161157105DB
:1006F00041F0448155810E944C03CE01DF91CF919E
:1007000008950E942403F9CFFC0111821082138204
:100710001282158214820C946D03FC0111821082E6
:100720001382128215821482FB0101900020E9F7E6
:100730003197AF01461B570B0C944C03CF92DF92BD
:10074000EF92FF920F931F93CF93DF938C0167E398
:1007500071E080E593E00E948D038FE190E00E94BC
:10076000930AEC011B821A8288EE93E0A0E0B0E0CD
:100770008C839D83AE83BF838CE091E099838883D3
:100780001F8A1E8A198E188E1B8E1A8E1D8E1C8E25
:100790006E8D6E7F6D7F6E8F6695617081E06827CC
:1007A00083E00E94700641EB50E0FA0164918DE90C
:1007B00090E0FC012491222399F030E0220F331FB6
:1007C000F901EA57FF4FA591B491F901E057FF4FA6
:1007D000259134912FB7F8943C91632B6C932FBFE4
:1007E000FA014491488BFC018491E82FF0E0EE0F70
:1007F000FF1FE057FF4F859194919A8B898B50EBA7
:10080000C52E50E0D52EF60124916CE9E62E60E06D
:10081000F62EF70184918823C9F090E0880F991F84
:10082000FC01EA57FF4FA591B491FC01E057FF4F3F
:10083000459154913FB7F8949C91822F80959823CD
:100840009C93FA019081892380833FBF8E8D81FD27
:1008500004C061E082E00E94700682E08C87F601AD
:10086000C490CD86F701E490EE2DF0E0EE0FFF1F6F
:10087000E458FF4F859194919F878E87D0934F03C3
:10088000C0934E038DE991E09D8F8C8F8DEB90E0AE
:100890009F8B8E8B8BE991E0998F888F8CE291E012
:1008A0009B8F8A8F809168008460809368009C850C
:1008B0002DE630E0983050F02BE630E09E3030F0FE
:1008C0002CE630E0963110F030E020E03C8B2B8BB2
:1008D000292F30E09830E0F581E001C0880F9A952B
:1008E000EAF78D8B8C8D9D8D0197F1F78A8D9B8D0D
:1008F000892B09F1E091AF02F091B002CE17DF072A
:10090000D1F0309739F0A389B4899C91858980957D
:1009100089238C938E8D8E7F8E8F1092AE021092D3
:10092000AD02D093B002C093AF02EB89FC89808105
:100930009D89892B8083B80180E593E0DF91CF9179
:100940001F910F91FF90EF90DF90CF900C946D036B
:100950009E3040F42850310981E001C0880F2A956B
:10096000EAF7BFCF2E503109F7CFFC01808191818A
:10097000009711F00C942F0B08950F931F93CF93B2
:10098000DF93CDB7DEB72C970FB6F894DEBF0FBE5E
:10099000CDBF8C016CE271E0CE0101960E948D0307
:1009A000D80114964D915C9115976D917C91CE0173
:1009B00001960E94E502811104C0CE0101960E94B9
:1009C000240360E371E0CE0101960E943603BC016E
:1009D000CE0107960E948403CE0101960E94B504C1
:1009E00067E371E0CE0101960E948D03BE01695F4D
:1009F0007F4F80914E0390914F030E94E4008091BD
:100A00004E0390914F03DC01ED91FC910084F18540
:100A1000E02D0995892B99F380914E0390914F0316
:100A2000DC01ED91FC910084F185E02D09958C01AC
:100A3000892BB9F080914E0390914F03DC01ED9129
:100A4000FC910284F385E02D0995682FCE01019673
:100A50000E94110362E070E080E090E00E94B2002A
:100A6000DBCF8D819E81892B69F063E371E0898101
:100A70009A810E947E0C31E020E0892B09F030E061
:100A8000032F122FCE0101960E94B504CE010796C6
:100A90000E94B504C8012C960FB6F894DEBF0FBEB5
:100AA000CDBFDF91CF911F910F9108951F920F92AB
:100AB0000FB60F9211242F933F938F939F93AF9371
:100AC000BF938091A5029091A602A091A702B09138
:100AD000A8023091A40223E0230F2D3758F5019688
:100AE000A11DB11D2093A4028093A5029093A6029C
:100AF000A093A702B093A8028091A9029091AA02A4
:100B0000A091AB02B091AC020196A11DB11D8093E2
:100B1000A9029093AA02A093AB02B093AC02BF913A
:100B2000AF919F918F913F912F910F900FBE0F909A
:100B30001F90189526E8230F0296A11DB11DD2CF54
:100B40001F920F920FB60F9211242F933F934F9342
:100B50005F936F937F938F939F93AF93BF93EF9325
:100B6000FF9381EB92E00E947001FF91EF91BF91A2
:100B7000AF919F918F917F916F915F914F913F9135
:100B80002F910F900FBE0F901F9018951F920F92EC
:100B90000FB60F9211242F938F939F93EF93FF9390
:100BA000E091C102F091C2028081E091C702F09110
:100BB000C80282FD1BC090818091CA028F5F8F7333
:100BC0002091CB02821741F0E091CA02F0E0EF548D
:100BD000FD4F958F8093CA02FF91EF919F918F9166
:100BE0002F910F900FBE0F901F9018958081F4CF1A
:100BF0001F920F920FB60F9211242F933F934F9392
:100C00005F936F937F938F939F93AF93BF93EF9374
:100C1000FF93E091AF02F091B002309749F0A685C2
:100C2000B7858585968D91FF14C09C918923A1F489
:100C3000FF91EF91BF91AF919F918F917F916F91B4
:100C40005F914F913F912F910F900FBE0F901F908A
:100C500018959C91892361F7A389B4899C91858912
:100C6000809589238C93868997890197F1F7608D08
:100C7000718DA685B785558538E020E0CB010197B9
:100C8000F1F7822F90E095958795282F4C91452379
:100C900009F02068315091F7868D81FD2095809173
:100CA000AE0290E001968F7399273091AD0238170C
:100CB00099F0A091AE02B0E0AC59BD4F2C93809357
:100CC000AE02828D938D0197F1F7A389B4898C913F
:100CD0009589892B8C93ACCF868D8160868FF1CFDF
:100CE00090E0FC01E859FF4F2491FC01E255FF4FD1
:100CF0003491FC01E656FF4FE491EE23C9F0222324
:100D000039F0233001F1A8F4213019F1223029F112
:100D1000F0E0EE0FFF1FE057FF4FA591B4918FB7A2
:100D2000F894EC91611126C030953E233C938FBF1F
:100D300008952730A9F02830C9F0243049F7809170
:100D400080008F7D03C0809180008F77809380002A
:100D5000DFCF84B58F7784BDDBCF84B58F7DFBCFAC
:100D60008091B0008F778093B000D2CF8091B00097
:100D70008F7DF9CF3E2BDACFCF93DF9300D000D019
:100D800000D0CDB7DEB7E1EBF2E01382128288EE3D
:100D900093E0A0E0B0E084839583A683B7838EE1DF
:100DA00091E09183808385EC90E09587848784EC43
:100DB00090E09787868780EC90E0918B808B81EC28
:100DC00090E0938B828B82EC90E0958B848B86EC09
:100DD00090E0978B868B118E128E138E148E6EE39D
:100DE00071E0CE0101960E948D03CE0101960E9412
:100DF0009E03CE0101960E94B50426960FB6F89484
:100E0000DEBF0FBECDBFDF91CF910895CF93DF93AB
:100E1000CDB7DEB7A4970FB6F894DEBF0FBECDBF37
:100E2000789484B5826084BD84B5816084BD85B5C5
:100E3000826085BD85B5816085BD80916E008160D1
:100E400080936E0010928100809181008260809377
:100E50008100809181008160809381008091800079
:100E60008160809380008091B10084608093B100A4
:100E70008091B00081608093B00080917A0084609E
:100E800080937A0080917A00826080937A008091CA
:100E90007A00816080937A0080917A0080688093E4
:100EA0007A001092C100E091C102F091C20282E08A
:100EB0008083E091BD02F091BE021082E091BF02FA
:100EC000F091C00280E180831092C902E091C502D6
:100ED000F091C60286E08083E091C302F091C402E3
:100EE000808180618083E091C302F091C40280819F
:100EF00088608083E091C302F091C40280818068A1
:100F00008083E091C302F091C40280818F7D808351
:100F100064E670E080E090E00E94B20088E491E036
:100F20000E94B00264E670E080E090E00E94B200AF
:100F300066E571E0CE0101960E948D03CE01019617
:100F40000E94BD048C01CE0101960E94B504012BC4
:100F500009F419C16FE571E0CE0101960E948D037D
:100F6000CE0101960E94BD048C01CE0101960E9423
:100F7000B504012B09F407C16AE671E0CE010196C0
:100F80000E948D03CE0101960E94BD048C01CE010A
:100F900001960E94B504012B09F4F5C063E771E0E6
:100FA000CE0101960E948D03CE0101960E94BD04E0
:100FB0008C01CE0101960E94B504012B09F4E3C017
:100FC0006DE771E0CE0101960E948D03CE0101967E
:100FD0000E94BD048C01CE0101960E94B504012B34
:100FE00009F4D1C066E871E0CE0101960E948D033C
:100FF000CE0101960E94BD048C01CE0101960E9493
:10100000B504012B09F4BFC063EA71E0CE0101967B
:101010000E948D03CE0101960E94BD048C01CE0179
:1010200001960E94B504012B09F4ADC06CEA71E091
:10103000CE0101960E948D03CE0101960E94BD044F
:101040008C01CE0101960E94B504012B09F49BC0CE
:1010500065EB71E0CE0101960E948D03CE010196F1
:101060000E94BD048C01CE0101960E94B504012BA3
:1010700009F489C04CE250E060EC71E081EB92E051
:101080000E94F20067E172E0CE014F960E948D034C
:10109000BE01615E7F4FCE0101960E948403CE01A6
:1010A00001960E94BD048C01CE0101960E94B504F8
:1010B000012B09F472C08EE192E00E94B00264E656
:1010C00070E080E090E00E94B20066E372E0CE0142
:1010D00001960E948D03BE016F5F7F4FCE0149963E
:1010E0000E946909CE0101960E94B5048D8D9E8DE6
:1010F000892B09F44DC0E98DFA8D8081882309F48C
:1011000047C0BE01675E7F4F81EB92E00E94E40022
:1011100060E573E0CE010D960E948403BE01635F1B
:101120007F4FCE0107960E94840366E371E0CE01F3
:1011300007960E943603BC01CE0101960E948403EB
:10114000BE016F5F7F4FCE0143960E94D208CE0151
:1011500001960E94B504CE0107960E94B504CE0107
:101160000D960E94B504BE016D5E7F4F81EB92E04B
:101170000E94E400CE0143960E94B504CE01499638
:101180000E94B504FFCF8DEE91E00E94B0027ACFAD
:101190008CE392E00E94B002F1CF81E592E00E94E0
:1011A000B002F0CFCF93DF93EC0180914E0390918A
:1011B0004F030E94E40067E371E0CE010E948D03BB
:1011C00080914E0390914F03DC01ED91FC910084DE
:1011D000F185E02D0995892B99F380914E0390912B
:1011E0004F03DC01ED91FC910084F185E02D099520
:1011F000892BB1F080914E0390914F03DC01ED916A
:10120000FC910284F385E02D0995682FCE010E94A0
:10121000110362E070E080E090E00E94B200DDCF58
:10122000CE01DF91CF910895AF92BF92CF92DF921E
:10123000EF92FF920F931F93CF93DF937C016B018B
:101240005A0189012417350720F48B2D5901042FE9
:10125000182F67E371E0C7010E948D03D601149631
:10126000CD91DC91AC16BD0620F50C171D0708F4D6
:10127000E801D601ED91FC911197EC0FFD1F108153
:1012800010826D917C916A0D7B1D61157105E9F0ED
:10129000FB0101900020E9F73197AF01461B570B86
:1012A000C7010E944C03F60180819181C80FD91FAC
:1012B0001883C701DF91CF911F910F91FF90EF909D
:1012C000DF90CF90BF90AF900895C7010E94240394
:1012D000EACFEF92FF920F931F93CF93DF93CDB797
:1012E000DEB762970FB6F894DEBF0FBECDBF8C019C
:1012F0007B016CE271E0CE0101960E948D03D70163
:1013000014964D915C9115976D917C91CE0101964B
:101310000E94E502811104C0CE0101960E942403BF
:1013200068E371E0CE0101960E943603BC01CE0154
:101330000D960E948403CE0101960E94B50467E3D6
:1013400071E0CE0107960E948D03BE01635F7F4F5F
:1013500080914E0390914F030E94E40080914E03D0
:1013600090914F03DC01ED91FC910084F185E02D1B
:101370000995892B99F380914E0390914F03DC01DD
:10138000ED91FC910084F185E02D0995892BB9F050
:1013900080914E0390914F03DC01ED91FC9102840A
:1013A000F385E02D0995682FCE0107960E94110361
:1013B00062E070E080E090E00E94B200DCCF4B85FC
:1013C0005C859A012250310944505109BE01695F80
:1013D0007F4FCE0101960E9414098D819E81892B39
:1013E00051F06BE371E089819A810E947E0CFF24A9
:1013F000F394892B09F0F12CCE0101960E94B504DB
:10140000FF2011F12B853C852550310950E040E04B
:10141000BE01695F7F4FC8010E941409CE01079683
:101420000E94B504CE010D960E94B504C8016296D3
:101430000FB6F894DEBF0FBECDBFDF91CF911F91E5
:101440000F91FF90EF90089566E071E0C8010E944F
:101450008D03E4CF80E593E00C94B5042F923F9286
:101460004F925F926F927F928F929F92AF92BF92B4
:10147000CF92DF92EF92FF920F931F93CF93DF9360
:10148000CDB7DEB7CA1BDB0B0FB6F894DEBF0FBEBD
:10149000CDBF09942A88398848885F846E847D840A
:1014A0008C849B84AA84B984C884DF80EE80FD800C
:1014B0000C811B81AA81B981CE0FD11D0FB6F89482
:1014C000DEBF0FBECDBFED01089597FB072E16F4CA
:1014D000009407D077FD09D00E94790A07FC05D057
:1014E0003EF4909581959F4F0895709561957F4F3B
:1014F0000895AA1BBB1B51E107C0AA1FBB1FA6175B
:10150000B70710F0A61BB70B881F991F5A95A9F7AC
:1015100080959095BC01CD010895EE0FFF1F0590B9
:10152000F491E02D09940F931F93CF93DF938230B2
:10153000910510F482E090E0E0915803F091590396
:1015400030E020E0B0E0A0E0309799F421153105BB
:1015500009F44AC0281B390B24303105D8F58A819B
:101560009B816115710589F1FB0193838283FE01E3
:1015700011C0408151810281138148175907E0F061
:101580004817590799F4109761F012960C93129727
:1015900013961C933296CF01DF91CF911F910F913B
:1015A00008950093580310935903F4CF2115310582
:1015B00051F04217530738F0A901DB019A01BD0130
:1015C000DF01F801C1CFEF01F9CF90935903809368
:1015D0005803CDCFFE01E20FF31F81939193225068
:1015E000310939832883D7CF20915603309157038F
:1015F000232B41F4209102013091030130935703D2
:1016000020935603209100013091010121153105ED
:1016100041F42DB73EB74091040150910501241BC0
:10162000350BE0915603F0915703E217F307A0F44E
:101630002E1B3F0B2817390778F0AC014E5F5F4F28
:101640002417350748F04E0F5F1F50935703409300
:101650005603819391939FCFF0E0E0E09CCFCF932E
:10166000DF930097E9F0FC01329713821282A09178
:101670005803B0915903ED0130E020E01097A1F438
:1016800020813181820F931F20915603309157039F
:101690002817390709F061C0F0935703E093560308
:1016A000DF91CF910895EA01CE17DF07E8F54A816F
:1016B0005B819E0141155105B1F7E901FB83EA8386
:1016C00049915991C40FD51FEC17FD0761F4808132
:1016D00091810296840F951FE90199838883828105
:1016E00093819B838A83F0E0E0E012968D919C9138
:1016F00013970097B9F52D913C911197CD01029662
:10170000820F931F209156033091570328173907F2
:1017100039F6309751F51092590310925803B0934F
:101720005703A0935603BCCFD383C283408151811A
:10173000840F951FC817D90761F44E5F5F4F8881EA
:101740009981480F591F518340838A819B819383DC
:1017500082832115310509F0B0CFF0935903E0934E
:1017600058039ECFFD01DC01C0CF13821282D7CF78
:10177000B0E0A0E0EEEBFBE00C94300A8C010097A7
:1017800051F4CB010E94930A8C01C801CDB7DEB79A
:10179000E0E10C944C0AFC01E60FF71F9C0122507B
:1017A0003109E217F30708F49DC0D901CD91DC910E
:1017B0001197C617D70798F0C530D10530F3CE0181
:1017C00004978617970708F3C61BD70B2297C19378
:1017D000D1936D937C93CF010E942F0BD6CF5B01E9
:1017E000AC1ABD0A4C018C0E9D1EA0915803B091FD
:1017F0005903512C412CF12CE12C109731F580919B
:101800005603909157038815990509F05CC0461658
:10181000570608F058C0809100019091010100978F
:1018200041F48DB79EB74091040150910501841B8E
:10183000950BE817F90708F055C0F0935703E093AC
:101840005603F90171836083A0CF8D919C9111970C
:1018500012966C90129713967C901397A815B90561
:1018600059F56C0142E0C40ED11CCA14DB0420F10E
:10187000AC014A195B09DA011296159780F0628271
:10188000738251834083D9016D937C93E114F104F9
:1018900071F0D7011396FC93EE93129776CF2296B0
:1018A0008C0F9D1FF90191838083F301EFCFF0939B
:1018B0005903E093580369CF4816590608F42C01E0
:1018C0007D01D3019ACFCB010E94930A7C0100973E
:1018D00049F0AE01B8010E94750CC8010E942F0B9F
:1018E000870153CF10E000E050CFFB01DC0102C0C4
:1018F00001900D9241505040D8F70895FB01DC0152
:101900008D91019080190110D9F3990B0895FB0175
:10191000DC0101900D920020E1F7089510E0C2E68D
:10192000D0E004C0FE010E948D0A2196C336D10783
:06193000C9F7F894FFCF97
:1019360000005A0380000000000000001802F200B8
:10194600AD02170274028C02FF0100000000920132
:10195600F2001F01DF0150012E01420141542A000D
:10196600230A004F4B0D0A003F0A004F4B00303050
:10197600303030312D30310053455249414C2052E0
:10198600454144590A00574B4D4F44453D310047A8
:101996005052534D4F44453D330043484D4F444507
:1019A6003D30004442474D4F44453D30004441548C
:1019B6004149443D3000534552564552313D302C45
:1019C60034392E3233322E3135322E37302C3333F2
:1019D600383900524547504B473D30004441544149
:1019E6004D443D30004750534346473D342C30006C
:1019F6002D2D2D2D2D2D2D2D2D2D436F6E666967C9
:101A060075726174696F6E2053554343454544456D
:101A1600442D2D2D2D2D2D2D2D2D2D0A002D2D2D29
:101A26002D2D2D2D2D2D2D436F6E666967757261D7
:101A360074696F6E204641494C45442D2D2D2D2D40
:101A46002D2D2D2D2D0A0057414B45555000436F26
:101A56006E66696775726174696F6E20535543438C
:101A66004545442E0A004454554944004552524FB8
:101A7600522052454144494E4720444154412E0A82
:101A86000054525920414741494E20504C4541533C
:041A9600452E0A00CF
:00000001FF
